{
  "contractName": "RewardPoints",
  "abi": [
    {
      "inputs": [],
      "payable": false,
      "stateMutability": "nonpayable",
      "type": "constructor"
    },
    {
      "anonymous": false,
      "inputs": [
        {
          "indexed": true,
          "name": "admin",
          "type": "address"
        }
      ],
      "name": "AddedAdmin",
      "type": "event"
    },
    {
      "anonymous": false,
      "inputs": [
        {
          "indexed": true,
          "name": "admin",
          "type": "address"
        }
      ],
      "name": "RemovedAdmin",
      "type": "event"
    },
    {
      "anonymous": false,
      "inputs": [
        {
          "indexed": true,
          "name": "merchant",
          "type": "address"
        },
        {
          "indexed": true,
          "name": "id",
          "type": "uint256"
        }
      ],
      "name": "AddedMerchant",
      "type": "event"
    },
    {
      "anonymous": false,
      "inputs": [
        {
          "indexed": true,
          "name": "merchantId",
          "type": "uint256"
        }
      ],
      "name": "BannedMerchant",
      "type": "event"
    },
    {
      "anonymous": false,
      "inputs": [
        {
          "indexed": true,
          "name": "merchantId",
          "type": "uint256"
        }
      ],
      "name": "ApprovedMerchant",
      "type": "event"
    },
    {
      "anonymous": false,
      "inputs": [
        {
          "indexed": true,
          "name": "merchantId",
          "type": "uint256"
        },
        {
          "indexed": false,
          "name": "oldOwner",
          "type": "address"
        },
        {
          "indexed": false,
          "name": "newOwner",
          "type": "address"
        }
      ],
      "name": "TransferredMerchantOwnership",
      "type": "event"
    },
    {
      "anonymous": false,
      "inputs": [
        {
          "indexed": true,
          "name": "merchantId",
          "type": "uint256"
        },
        {
          "indexed": true,
          "name": "operator",
          "type": "address"
        }
      ],
      "name": "AddedOperator",
      "type": "event"
    },
    {
      "anonymous": false,
      "inputs": [
        {
          "indexed": true,
          "name": "merchantId",
          "type": "uint256"
        },
        {
          "indexed": true,
          "name": "operator",
          "type": "address"
        }
      ],
      "name": "RemovedOperator",
      "type": "event"
    },
    {
      "anonymous": false,
      "inputs": [
        {
          "indexed": true,
          "name": "user",
          "type": "address"
        },
        {
          "indexed": true,
          "name": "id",
          "type": "uint256"
        }
      ],
      "name": "AddedUser",
      "type": "event"
    },
    {
      "anonymous": false,
      "inputs": [
        {
          "indexed": true,
          "name": "user",
          "type": "address"
        },
        {
          "indexed": true,
          "name": "id",
          "type": "uint256"
        }
      ],
      "name": "BannedUser",
      "type": "event"
    },
    {
      "anonymous": false,
      "inputs": [
        {
          "indexed": true,
          "name": "user",
          "type": "address"
        },
        {
          "indexed": true,
          "name": "id",
          "type": "uint256"
        }
      ],
      "name": "ApprovedUser",
      "type": "event"
    },
    {
      "anonymous": false,
      "inputs": [
        {
          "indexed": true,
          "name": "user",
          "type": "address"
        },
        {
          "indexed": true,
          "name": "merchantId",
          "type": "uint256"
        },
        {
          "indexed": false,
          "name": "points",
          "type": "uint256"
        }
      ],
      "name": "RewardedUser",
      "type": "event"
    },
    {
      "anonymous": false,
      "inputs": [
        {
          "indexed": true,
          "name": "user",
          "type": "address"
        },
        {
          "indexed": true,
          "name": "merchantId",
          "type": "uint256"
        },
        {
          "indexed": false,
          "name": "points",
          "type": "uint256"
        }
      ],
      "name": "RedeemedPoints",
      "type": "event"
    },
    {
      "constant": false,
      "inputs": [
        {
          "name": "_admin",
          "type": "address"
        }
      ],
      "name": "addAdmin",
      "outputs": [],
      "payable": false,
      "stateMutability": "nonpayable",
      "type": "function"
    },
    {
      "constant": false,
      "inputs": [
        {
          "name": "_admin",
          "type": "address"
        }
      ],
      "name": "removeAdmin",
      "outputs": [],
      "payable": false,
      "stateMutability": "nonpayable",
      "type": "function"
    },
    {
      "constant": false,
      "inputs": [
        {
          "name": "_merchant",
          "type": "address"
        }
      ],
      "name": "addMerchant",
      "outputs": [],
      "payable": false,
      "stateMutability": "nonpayable",
      "type": "function"
    },
    {
      "constant": false,
      "inputs": [
        {
          "name": "_id",
          "type": "uint256"
        }
      ],
      "name": "banMerchant",
      "outputs": [],
      "payable": false,
      "stateMutability": "nonpayable",
      "type": "function"
    },
    {
      "constant": false,
      "inputs": [
        {
          "name": "_id",
          "type": "uint256"
        }
      ],
      "name": "approveMerchant",
      "outputs": [],
      "payable": false,
      "stateMutability": "nonpayable",
      "type": "function"
    },
    {
      "constant": false,
      "inputs": [
        {
          "name": "_user",
          "type": "address"
        }
      ],
      "name": "addUser",
      "outputs": [],
      "payable": false,
      "stateMutability": "nonpayable",
      "type": "function"
    },
    {
      "constant": false,
      "inputs": [
        {
          "name": "_user",
          "type": "address"
        }
      ],
      "name": "banUser",
      "outputs": [],
      "payable": false,
      "stateMutability": "nonpayable",
      "type": "function"
    },
    {
      "constant": false,
      "inputs": [
        {
          "name": "_user",
          "type": "address"
        }
      ],
      "name": "approveUser",
      "outputs": [],
      "payable": false,
      "stateMutability": "nonpayable",
      "type": "function"
    },
    {
      "constant": false,
      "inputs": [
        {
          "name": "_operator",
          "type": "address"
        }
      ],
      "name": "addOperator",
      "outputs": [],
      "payable": false,
      "stateMutability": "nonpayable",
      "type": "function"
    },
    {
      "constant": false,
      "inputs": [
        {
          "name": "_operator",
          "type": "address"
        }
      ],
      "name": "removeOperator",
      "outputs": [],
      "payable": false,
      "stateMutability": "nonpayable",
      "type": "function"
    },
    {
      "constant": false,
      "inputs": [
        {
          "name": "_newAddr",
          "type": "address"
        }
      ],
      "name": "transferMerchantOwnership",
      "outputs": [],
      "payable": false,
      "stateMutability": "nonpayable",
      "type": "function"
    },
    {
      "constant": false,
      "inputs": [
        {
          "name": "_user",
          "type": "address"
        },
        {
          "name": "_points",
          "type": "uint256"
        }
      ],
      "name": "rewardUser",
      "outputs": [],
      "payable": false,
      "stateMutability": "nonpayable",
      "type": "function"
    },
    {
      "constant": false,
      "inputs": [
        {
          "name": "_mId",
          "type": "uint256"
        },
        {
          "name": "_points",
          "type": "uint256"
        }
      ],
      "name": "redeemPoints",
      "outputs": [],
      "payable": false,
      "stateMutability": "nonpayable",
      "type": "function"
    },
    {
      "constant": true,
      "inputs": [
        {
          "name": "_id",
          "type": "uint256"
        }
      ],
      "name": "getMerchantById",
      "outputs": [
        {
          "name": "",
          "type": "uint256"
        },
        {
          "name": "",
          "type": "address"
        },
        {
          "name": "",
          "type": "bool"
        }
      ],
      "payable": false,
      "stateMutability": "view",
      "type": "function"
    },
    {
      "constant": true,
      "inputs": [
        {
          "name": "_addr",
          "type": "address"
        }
      ],
      "name": "getMerchantByAddr",
      "outputs": [
        {
          "name": "",
          "type": "uint256"
        },
        {
          "name": "",
          "type": "address"
        },
        {
          "name": "",
          "type": "bool"
        }
      ],
      "payable": false,
      "stateMutability": "view",
      "type": "function"
    },
    {
      "constant": true,
      "inputs": [
        {
          "name": "_operator",
          "type": "address"
        },
        {
          "name": "_mId",
          "type": "uint256"
        }
      ],
      "name": "isMerchantOperator",
      "outputs": [
        {
          "name": "",
          "type": "bool"
        }
      ],
      "payable": false,
      "stateMutability": "view",
      "type": "function"
    },
    {
      "constant": true,
      "inputs": [
        {
          "name": "_id",
          "type": "uint256"
        }
      ],
      "name": "getUserById",
      "outputs": [
        {
          "name": "",
          "type": "uint256"
        },
        {
          "name": "",
          "type": "address"
        },
        {
          "name": "",
          "type": "bool"
        },
        {
          "name": "",
          "type": "uint256"
        },
        {
          "name": "",
          "type": "uint256"
        }
      ],
      "payable": false,
      "stateMutability": "view",
      "type": "function"
    },
    {
      "constant": true,
      "inputs": [
        {
          "name": "_addr",
          "type": "address"
        }
      ],
      "name": "getUserByAddr",
      "outputs": [
        {
          "name": "",
          "type": "uint256"
        },
        {
          "name": "",
          "type": "address"
        },
        {
          "name": "",
          "type": "bool"
        },
        {
          "name": "",
          "type": "uint256"
        },
        {
          "name": "",
          "type": "uint256"
        }
      ],
      "payable": false,
      "stateMutability": "view",
      "type": "function"
    },
    {
      "constant": true,
      "inputs": [
        {
          "name": "_user",
          "type": "address"
        },
        {
          "name": "_mId",
          "type": "uint256"
        }
      ],
      "name": "getUserEarnedPointsAtMerchant",
      "outputs": [
        {
          "name": "",
          "type": "uint256"
        }
      ],
      "payable": false,
      "stateMutability": "view",
      "type": "function"
    },
    {
      "constant": true,
      "inputs": [
        {
          "name": "_user",
          "type": "address"
        },
        {
          "name": "_mId",
          "type": "uint256"
        }
      ],
      "name": "getUserRedeemedPointsAtMerchant",
      "outputs": [
        {
          "name": "",
          "type": "uint256"
        }
      ],
      "payable": false,
      "stateMutability": "view",
      "type": "function"
    }
  ],
  "bytecode": "0x608060405234801561001057600080fd5b50600260606040519081016040528060008152602001600073ffffffffffffffffffffffffffffffffffffffff16815260200160001515815250908060018154018082558091505090600182039060005260206000209060030201600090919290919091506000820151816000015560208201518160010160006101000a81548173ffffffffffffffffffffffffffffffffffffffff021916908373ffffffffffffffffffffffffffffffffffffffff16021790555060408201518160010160146101000a81548160ff021916908315150217905550505050600460a06040519081016040528060008152602001600073ffffffffffffffffffffffffffffffffffffffff168152602001600015158152602001600081526020016000815250908060018154018082558091505090600182039060005260206000209060060201600090919290919091506000820151816000015560208201518160010160006101000a81548173ffffffffffffffffffffffffffffffffffffffff021916908373ffffffffffffffffffffffffffffffffffffffff16021790555060408201518160010160146101000a81548160ff0219169083151502179055506060820151816002015560808201518160030155505050336000806101000a81548173ffffffffffffffffffffffffffffffffffffffff021916908373ffffffffffffffffffffffffffffffffffffffff1602179055506124e9806102326000396000f3fe608060405260043610610112576000357c0100000000000000000000000000000000000000000000000000000000900463ffffffff16806310d86b1f146101175780631785f53c146101685780631d210cd2146101b95780632aa39ebf146102465780632d36c611146102e9578063421b2d8b1461033a5780636aea3baf1461038b5780636ed6da9e146103fe57806370480275146104995780639870d7fe146104ea578063a40699371461053b578063ac8a584a146105aa578063af74052d146105fb578063bf76c0ef1461066a578063c2e70431146106bb578063d624fdb614610700578063e39e0e4614610751578063e4e103dc1461078c578063ed556a17146107e7578063f16e4e4614610822575b600080fd5b34801561012357600080fd5b506101666004803603602081101561013a57600080fd5b81019080803573ffffffffffffffffffffffffffffffffffffffff1690602001909291905050506108d3565b005b34801561017457600080fd5b506101b76004803603602081101561018b57600080fd5b81019080803573ffffffffffffffffffffffffffffffffffffffff169060200190929190505050610a80565b005b3480156101c557600080fd5b506101f2600480360360208110156101dc57600080fd5b8101908080359060200190929190505050610b79565b604051808481526020018373ffffffffffffffffffffffffffffffffffffffff1673ffffffffffffffffffffffffffffffffffffffff16815260200182151515158152602001935050505060405180910390f35b34801561025257600080fd5b506102956004803603602081101561026957600080fd5b81019080803573ffffffffffffffffffffffffffffffffffffffff169060200190929190505050610bfd565b604051808481526020018373ffffffffffffffffffffffffffffffffffffffff1673ffffffffffffffffffffffffffffffffffffffff16815260200182151515158152602001935050505060405180910390f35b3480156102f557600080fd5b506103386004803603602081101561030c57600080fd5b81019080803573ffffffffffffffffffffffffffffffffffffffff169060200190929190505050610c5c565b005b34801561034657600080fd5b506103896004803603602081101561035d57600080fd5b81019080803573ffffffffffffffffffffffffffffffffffffffff169060200190929190505050610ec5565b005b34801561039757600080fd5b506103e4600480360360408110156103ae57600080fd5b81019080803573ffffffffffffffffffffffffffffffffffffffff16906020019092919080359060200190929190505050611132565b604051808215151515815260200191505060405180910390f35b34801561040a57600080fd5b506104376004803603602081101561042157600080fd5b81019080803590602001909291905050506111bb565b604051808681526020018573ffffffffffffffffffffffffffffffffffffffff1673ffffffffffffffffffffffffffffffffffffffff168152602001841515151581526020018381526020018281526020019550505050505060405180910390f35b3480156104a557600080fd5b506104e8600480360360208110156104bc57600080fd5b81019080803573ffffffffffffffffffffffffffffffffffffffff169060200190929190505050611252565b005b3480156104f657600080fd5b506105396004803603602081101561050d57600080fd5b81019080803573ffffffffffffffffffffffffffffffffffffffff16906020019092919050505061134a565b005b34801561054757600080fd5b506105946004803603604081101561055e57600080fd5b81019080803573ffffffffffffffffffffffffffffffffffffffff169060200190929190803590602001909291905050506114a4565b6040518082815260200191505060405180910390f35b3480156105b657600080fd5b506105f9600480360360208110156105cd57600080fd5b81019080803573ffffffffffffffffffffffffffffffffffffffff16906020019092919050505061154c565b005b34801561060757600080fd5b506106546004803603604081101561061e57600080fd5b81019080803573ffffffffffffffffffffffffffffffffffffffff169060200190929190803590602001909291905050506116a7565b6040518082815260200191505060405180910390f35b34801561067657600080fd5b506106b96004803603602081101561068d57600080fd5b81019080803573ffffffffffffffffffffffffffffffffffffffff16906020019092919050505061174f565b005b3480156106c757600080fd5b506106fe600480360360408110156106de57600080fd5b810190808035906020019092919080359060200190929190505050611992565b005b34801561070c57600080fd5b5061074f6004803603602081101561072357600080fd5b81019080803573ffffffffffffffffffffffffffffffffffffffff169060200190929190505050611b29565b005b34801561075d57600080fd5b5061078a6004803603602081101561077457600080fd5b8101908080359060200190929190505050611cd7565b005b34801561079857600080fd5b506107e5600480360360408110156107af57600080fd5b81019080803573ffffffffffffffffffffffffffffffffffffffff16906020019092919080359060200190929190505050611e28565b005b3480156107f357600080fd5b506108206004803603602081101561080a57600080fd5b8101908080359060200190929190505050612063565b005b34801561082e57600080fd5b506108716004803603602081101561084557600080fd5b81019080803573ffffffffffffffffffffffffffffffffffffffff1690602001909291905050506121b5565b604051808681526020018573ffffffffffffffffffffffffffffffffffffffff1673ffffffffffffffffffffffffffffffffffffffff168152602001841515151581526020018381526020018281526020019550505050505060405180910390f35b600160003373ffffffffffffffffffffffffffffffffffffffff1673ffffffffffffffffffffffffffffffffffffffff16815260200190815260200160002060009054906101000a900460ff168061097757506000809054906101000a900473ffffffffffffffffffffffffffffffffffffffff1673ffffffffffffffffffffffffffffffffffffffff163373ffffffffffffffffffffffffffffffffffffffff16145b151561098257600080fd5b6000600560008373ffffffffffffffffffffffffffffffffffffffff1673ffffffffffffffffffffffffffffffffffffffff1681526020019081526020016000205490506004818154811015156109d557fe5b906000526020600020906006020160010160149054906101000a900460ff1615156109ff57600080fd5b6000600482815481101515610a1057fe5b906000526020600020906006020160010160146101000a81548160ff021916908315150217905550808273ffffffffffffffffffffffffffffffffffffffff167fc2be27190c9a0cc5a468331be74b4e27eb88b54465e6d34a9cfd50d05f43dcf960405160405180910390a35050565b6000809054906101000a900473ffffffffffffffffffffffffffffffffffffffff1673ffffffffffffffffffffffffffffffffffffffff163373ffffffffffffffffffffffffffffffffffffffff16141515610adb57600080fd5b6000600160008373ffffffffffffffffffffffffffffffffffffffff1673ffffffffffffffffffffffffffffffffffffffff16815260200190815260200160002060006101000a81548160ff0219169083151502179055508073ffffffffffffffffffffffffffffffffffffffff167f3137a7fedbfedb7895dfa5a6812a4566dae9ded68d00aeec13c6ed1fa84a1c8060405160405180910390a250565b6000806000610b878461221d565b1515610b9257600080fd5b6000600285815481101515610ba357fe5b9060005260206000209060030201905080600001548160010160009054906101000a900473ffffffffffffffffffffffffffffffffffffffff168260010160149054906101000a900460ff16935093509350509193909250565b600080600080600360008673ffffffffffffffffffffffffffffffffffffffff1673ffffffffffffffffffffffffffffffffffffffff168152602001908152602001600020549050610c4e81610b79565b935093509350509193909250565b610c653361224b565b1515610c7057600080fd5b6000600360003373ffffffffffffffffffffffffffffffffffffffff1673ffffffffffffffffffffffffffffffffffffffff1681526020019081526020016000205490506000600282815481101515610cc557fe5b906000526020600020906003020160020160003373ffffffffffffffffffffffffffffffffffffffff1673ffffffffffffffffffffffffffffffffffffffff16815260200190815260200160002060006101000a81548160ff0219169083151502179055506001600282815481101515610d3b57fe5b906000526020600020906003020160020160008473ffffffffffffffffffffffffffffffffffffffff1673ffffffffffffffffffffffffffffffffffffffff16815260200190815260200160002060006101000a81548160ff0219169083151502179055506000600360003373ffffffffffffffffffffffffffffffffffffffff1673ffffffffffffffffffffffffffffffffffffffff1681526020019081526020016000208190555080600360008473ffffffffffffffffffffffffffffffffffffffff1673ffffffffffffffffffffffffffffffffffffffff16815260200190815260200160002081905550807f38e5caf6dbff8a17136395c8c098a4dadbc2ab6724b71a9569100d8d35664afc3384604051808373ffffffffffffffffffffffffffffffffffffffff1673ffffffffffffffffffffffffffffffffffffffff1681526020018273ffffffffffffffffffffffffffffffffffffffff1673ffffffffffffffffffffffffffffffffffffffff1681526020019250505060405180910390a25050565b600160003373ffffffffffffffffffffffffffffffffffffffff1673ffffffffffffffffffffffffffffffffffffffff16815260200190815260200160002060009054906101000a900460ff1680610f6957506000809054906101000a900473ffffffffffffffffffffffffffffffffffffffff1673ffffffffffffffffffffffffffffffffffffffff163373ffffffffffffffffffffffffffffffffffffffff16145b1515610f7457600080fd5b60006004805490509050610f8661243b565b8181600001818152505082816020019073ffffffffffffffffffffffffffffffffffffffff16908173ffffffffffffffffffffffffffffffffffffffff1681525050600181604001901515908115158152505060008160600181815250506000816080018181525050600481908060018154018082558091505090600182039060005260206000209060060201600090919290919091506000820151816000015560208201518160010160006101000a81548173ffffffffffffffffffffffffffffffffffffffff021916908373ffffffffffffffffffffffffffffffffffffffff16021790555060408201518160010160146101000a81548160ff021916908315150217905550606082015181600201556080820151816003015550505081600560008573ffffffffffffffffffffffffffffffffffffffff1673ffffffffffffffffffffffffffffffffffffffff16815260200190815260200160002081905550818373ffffffffffffffffffffffffffffffffffffffff167fb6364826b84fdf145940760aab6fcaeeb0d90c5296e070d0db7ec6dec78fe39760405160405180910390a3505050565b600061113d8261221d565b151561114857600080fd5b60028281548110151561115757fe5b906000526020600020906003020160020160008473ffffffffffffffffffffffffffffffffffffffff1673ffffffffffffffffffffffffffffffffffffffff16815260200190815260200160002060009054906101000a900460ff16905092915050565b60008060008060006111cc86612318565b15156111d757600080fd5b60006004878154811015156111e857fe5b9060005260206000209060060201905080600001548160010160009054906101000a900473ffffffffffffffffffffffffffffffffffffffff168260010160149054906101000a900460ff1683600201548460030154955095509550955095505091939590929450565b6000809054906101000a900473ffffffffffffffffffffffffffffffffffffffff1673ffffffffffffffffffffffffffffffffffffffff163373ffffffffffffffffffffffffffffffffffffffff161415156112ad57600080fd5b60018060008373ffffffffffffffffffffffffffffffffffffffff1673ffffffffffffffffffffffffffffffffffffffff16815260200190815260200160002060006101000a81548160ff0219169083151502179055508073ffffffffffffffffffffffffffffffffffffffff167f7849194239ab1d31b991b5436d81370256505cf25eaafbcccbc66acd1189691660405160405180910390a250565b6113533361224b565b151561135e57600080fd5b6000600360003373ffffffffffffffffffffffffffffffffffffffff1673ffffffffffffffffffffffffffffffffffffffff16815260200190815260200160002054905060016002828154811015156113b357fe5b906000526020600020906003020160020160008473ffffffffffffffffffffffffffffffffffffffff1673ffffffffffffffffffffffffffffffffffffffff16815260200190815260200160002060006101000a81548160ff02191690831515021790555080600360008473ffffffffffffffffffffffffffffffffffffffff1673ffffffffffffffffffffffffffffffffffffffff168152602001908152602001600020819055508173ffffffffffffffffffffffffffffffffffffffff16817fe0e5cf542d864cc28fe9bb93f8015ebb10e7444d3a453cab31808fdc63ebc73960405160405180910390a35050565b600080600560008573ffffffffffffffffffffffffffffffffffffffff1673ffffffffffffffffffffffffffffffffffffffff1681526020019081526020016000205490506114f281612318565b15156114fd57600080fd5b6115068361221d565b151561151157600080fd5b60048181548110151561152057fe5b906000526020600020906006020160040160008481526020019081526020016000205491505092915050565b6115553361224b565b151561156057600080fd5b6000600360003373ffffffffffffffffffffffffffffffffffffffff1673ffffffffffffffffffffffffffffffffffffffff16815260200190815260200160002054905060006002828154811015156115b557fe5b906000526020600020906003020160020160008473ffffffffffffffffffffffffffffffffffffffff1673ffffffffffffffffffffffffffffffffffffffff16815260200190815260200160002060006101000a81548160ff0219169083151502179055506000600360008473ffffffffffffffffffffffffffffffffffffffff1673ffffffffffffffffffffffffffffffffffffffff168152602001908152602001600020819055508173ffffffffffffffffffffffffffffffffffffffff16817fd9d7cc28479337025556e9b66d9ddf15f30c4ca07a5cac044b3fc4ab88e172fa60405160405180910390a35050565b600080600560008573ffffffffffffffffffffffffffffffffffffffff1673ffffffffffffffffffffffffffffffffffffffff1681526020019081526020016000205490506116f581612318565b151561170057600080fd5b6117098361221d565b151561171457600080fd5b60048181548110151561172357fe5b906000526020600020906006020160050160008481526020019081526020016000205491505092915050565b600160003373ffffffffffffffffffffffffffffffffffffffff1673ffffffffffffffffffffffffffffffffffffffff16815260200190815260200160002060009054906101000a900460ff16806117f357506000809054906101000a900473ffffffffffffffffffffffffffffffffffffffff1673ffffffffffffffffffffffffffffffffffffffff163373ffffffffffffffffffffffffffffffffffffffff16145b15156117fe57600080fd5b60006002805490509050611810612483565b8181600001818152505082816020019073ffffffffffffffffffffffffffffffffffffffff16908173ffffffffffffffffffffffffffffffffffffffff16815250506001816040019015159081151581525050600281908060018154018082558091505090600182039060005260206000209060030201600090919290919091506000820151816000015560208201518160010160006101000a81548173ffffffffffffffffffffffffffffffffffffffff021916908373ffffffffffffffffffffffffffffffffffffffff16021790555060408201518160010160146101000a81548160ff02191690831515021790555050505081600360008573ffffffffffffffffffffffffffffffffffffffff1673ffffffffffffffffffffffffffffffffffffffff16815260200190815260200160002081905550818373ffffffffffffffffffffffffffffffffffffffff167fb01084884fee4c17d9a0f749b67b3ca7ebb78283da33d6843d7f46b41697b51360405160405180910390a3505050565b6119da600560003373ffffffffffffffffffffffffffffffffffffffff1673ffffffffffffffffffffffffffffffffffffffff16815260200190815260200160002054612346565b15156119e557600080fd5b6000600360003373ffffffffffffffffffffffffffffffffffffffff1673ffffffffffffffffffffffffffffffffffffffff16815260200190815260200160002054905081611a4f611a3733866116a7565b611a4133876114a4565b61239f90919063ffffffff16565b10151515611a5c57600080fd5b611a8f82600483815481101515611a6f57fe5b9060005260206000209060060201600301546123c190919063ffffffff16565b50611ad482600483815481101515611aa357fe5b90600052602060002090600602016005016000868152602001908152602001600020546123c190919063ffffffff16565b50823373ffffffffffffffffffffffffffffffffffffffff167fceca6bbcf2a10edbed79404a8d9ed1920eabd78e40a8fd9216e3fb7adf82732d846040518082815260200191505060405180910390a3505050565b600160003373ffffffffffffffffffffffffffffffffffffffff1673ffffffffffffffffffffffffffffffffffffffff16815260200190815260200160002060009054906101000a900460ff1680611bcd57506000809054906101000a900473ffffffffffffffffffffffffffffffffffffffff1673ffffffffffffffffffffffffffffffffffffffff163373ffffffffffffffffffffffffffffffffffffffff16145b1515611bd857600080fd5b6000600560008373ffffffffffffffffffffffffffffffffffffffff1673ffffffffffffffffffffffffffffffffffffffff168152602001908152602001600020549050600481815481101515611c2b57fe5b906000526020600020906006020160010160149054906101000a900460ff16151515611c5657600080fd5b6001600482815481101515611c6757fe5b906000526020600020906006020160010160146101000a81548160ff021916908315150217905550808273ffffffffffffffffffffffffffffffffffffffff167f9b6e57c14b4616ba96329167ca0ade31b69b7fe5a606c5524df505573629c76e60405160405180910390a35050565b600160003373ffffffffffffffffffffffffffffffffffffffff1673ffffffffffffffffffffffffffffffffffffffff16815260200190815260200160002060009054906101000a900460ff1680611d7b57506000809054906101000a900473ffffffffffffffffffffffffffffffffffffffff1673ffffffffffffffffffffffffffffffffffffffff163373ffffffffffffffffffffffffffffffffffffffff16145b1515611d8657600080fd5b600281815481101515611d9557fe5b906000526020600020906003020160010160149054906101000a900460ff161515611dbf57600080fd5b6000600282815481101515611dd057fe5b906000526020600020906003020160010160146101000a81548160ff021916908315150217905550807fc02a043301f509d07256b46027d2dbd985c4bcb1a950c4e02f509b7b636fe0cc60405160405180910390a250565b6000600360003373ffffffffffffffffffffffffffffffffffffffff1673ffffffffffffffffffffffffffffffffffffffff1681526020019081526020016000205490506000600282815481101515611e7d57fe5b906000526020600020906003020160020160003373ffffffffffffffffffffffffffffffffffffffff1673ffffffffffffffffffffffffffffffffffffffff16815260200190815260200160002060009054906101000a900460ff169050611ee4826123e2565b1515611eef57600080fd5b611ef83361224b565b80611f005750805b1515611f0b57600080fd5b6000600360003373ffffffffffffffffffffffffffffffffffffffff1673ffffffffffffffffffffffffffffffffffffffff1681526020019081526020016000205490506000600560008773ffffffffffffffffffffffffffffffffffffffff1673ffffffffffffffffffffffffffffffffffffffff168152602001908152602001600020549050611fc685600483815481101515611fa657fe5b9060005260206000209060060201600201546123c190919063ffffffff16565b5061200b85600483815481101515611fda57fe5b90600052602060002090600602016004016000858152602001908152602001600020546123c190919063ffffffff16565b50818673ffffffffffffffffffffffffffffffffffffffff167febb6a0504656d3cdee7f7be46f49f658865ac524116e57e2a20fc185b42b2b3a876040518082815260200191505060405180910390a3505050505050565b600160003373ffffffffffffffffffffffffffffffffffffffff1673ffffffffffffffffffffffffffffffffffffffff16815260200190815260200160002060009054906101000a900460ff168061210757506000809054906101000a900473ffffffffffffffffffffffffffffffffffffffff1673ffffffffffffffffffffffffffffffffffffffff163373ffffffffffffffffffffffffffffffffffffffff16145b151561211257600080fd5b60028181548110151561212157fe5b906000526020600020906003020160010160149054906101000a900460ff1615151561214c57600080fd5b600160028281548110151561215d57fe5b906000526020600020906003020160010160146101000a81548160ff021916908315150217905550807f4ddf5536c4e0a31688a6c51b0098e0186571b2b56df7c3cfa60777d9459b0bb960405160405180910390a250565b600080600080600080600560008873ffffffffffffffffffffffffffffffffffffffff1673ffffffffffffffffffffffffffffffffffffffff168152602001908152602001600020549050612209816111bb565b955095509550955095505091939590929450565b6000808214158015612233575060028054905082105b156122415760019050612246565b600090505b919050565b600080600360008473ffffffffffffffffffffffffffffffffffffffff1673ffffffffffffffffffffffffffffffffffffffff168152602001908152602001600020549050612299816123e2565b801561231057508273ffffffffffffffffffffffffffffffffffffffff166002828154811015156122c657fe5b906000526020600020906003020160010160009054906101000a900473ffffffffffffffffffffffffffffffffffffffff1673ffffffffffffffffffffffffffffffffffffffff16145b915050919050565b600080821415801561232e575060048054905082105b1561233c5760019050612341565b600090505b919050565b600061235182612318565b8015612387575060048281548110151561236757fe5b906000526020600020906006020160010160149054906101000a900460ff165b15612395576001905061239a565b600090505b919050565b60008282111515156123b057600080fd5b600082840390508091505092915050565b60008082840190508381101515156123d857600080fd5b8091505092915050565b60006123ed8261221d565b8015612423575060028281548110151561240357fe5b906000526020600020906003020160010160149054906101000a900460ff165b156124315760019050612436565b600090505b919050565b60a06040519081016040528060008152602001600073ffffffffffffffffffffffffffffffffffffffff16815260200160001515815260200160008152602001600081525090565b60606040519081016040528060008152602001600073ffffffffffffffffffffffffffffffffffffffff168152602001600015158152509056fea165627a7a723058202552ef67e1903e85048cdd6e1b37e47e8cb4ad0ec16f8382ee90c271f3a3a7350029",
  "source": "pragma solidity >=0.4.22 <0.6.0;\n\nimport \"./SafeMath.sol\";\n\ncontract RewardPoints {\n\n    using SafeMath for uint;\n    address private owner;\n    mapping(address => bool) private isAdmin; // Quick way to check if an addr is an Admin\n\n    struct Merchant {\n        uint id;\n        address addr; // the organization's owner address\n        bool isApproved;\n        mapping(address => bool) isOperator; // is addr approved by Merchant as operator\n    }\n    Merchant[] private merchants;\n    mapping(address => uint) private addrToMerchantId; // get merchantId from an addr\n\n    struct User {\n        uint id;\n        address addr;\n        bool isApproved;\n        uint totalEarnedPoints;\n        uint totalReedemedPoints;\n        mapping(uint => uint) merchantToEarnedPts; // keep track of points earned from each merchant separately\n        mapping(uint => uint) merchantToRedeemedPts; // keep track of points used for at each merchant\n    }\n    User[] private users;\n    mapping(address => uint) private addrToUserId;\n\n\n    // =================================\n    // Events and modifiers\n    // =================================\n    event AddedAdmin(address indexed admin);\n    event RemovedAdmin(address indexed admin);\n\n    event AddedMerchant(address indexed merchant, uint indexed id);\n    event BannedMerchant(uint indexed merchantId);\n    event ApprovedMerchant(uint indexed merchantId);\n    event TransferredMerchantOwnership(uint indexed merchantId, address oldOwner, address newOwner);\n\n    event AddedOperator(uint indexed merchantId, address indexed operator);\n    event RemovedOperator(uint indexed merchantId, address indexed operator);\n\n    event AddedUser(address indexed user, uint indexed id);\n    event BannedUser(address indexed user, uint indexed id);\n    event ApprovedUser(address indexed user, uint indexed id);\n\n    event RewardedUser(address indexed user, uint indexed merchantId, uint points);\n    event RedeemedPoints(address indexed user, uint indexed merchantId, uint points);\n\n    modifier onlyOwner() {\n        require(msg.sender == owner);\n        _;\n    }\n\n    modifier onlyAdmin() {\n        require(isAdmin[msg.sender] || msg.sender == owner);\n        _;\n    }\n\n    function merchantExist(uint _id) internal view returns(bool) {\n        if (_id != 0 && _id < merchants.length) return true;\n        return false;\n    }\n\n    function isMerchantValid(uint _id) internal view returns(bool) {\n        if(merchantExist(_id) && merchants[_id].isApproved) return true;\n        return false;\n    }\n\n    function isMerchantOwner(address _owner) internal view returns(bool) {\n        uint id = addrToMerchantId[_owner];\n        return (isMerchantValid(id) && merchants[id].addr == _owner);\n    }\n\n    modifier onlyMerchantOwner() {\n        require(isMerchantOwner(msg.sender));\n        _;\n    }\n\n    modifier onlyMerchant() {\n        uint id = addrToMerchantId[msg.sender];\n        bool isOperator = merchants[id].isOperator[msg.sender];\n        require(isMerchantValid(id));\n        require(isMerchantOwner(msg.sender) || isOperator);\n        _;\n    }\n\n    function userExist(uint _id) internal view returns(bool) {\n        if(_id != 0 && _id < users.length) return true;\n        return false;\n    }\n\n    function isUserValid(uint _id) internal view returns(bool) {\n        if(userExist(_id) && users[_id].isApproved) return true;\n        return false;\n    }\n\n    modifier onlyUser() {\n        require(isUserValid(addrToUserId[msg.sender]));\n        _;\n    }\n\n    constructor() public {\n        // Do not use ID 0 for first user and merchant to avoid returning invalid\n        // first merchant/user when looking it up with addrToMerchantID mapping\n        merchants.push(Merchant(0, address(0), false));\n        users.push(User(0, address(0), false, 0, 0));\n        owner = msg.sender;\n    }\n\n    // =================================\n    // Owner Only\n    // =================================\n    function addAdmin(address _admin) external onlyOwner {\n        // TODO: your code here\n        isAdmin[_admin] = true;\n        emit AddedAdmin(_admin);\n        \n    }\n\n    function removeAdmin(address _admin) external onlyOwner {\n        // TODO: your code here\n        isAdmin[_admin] = false;\n        emit RemovedAdmin(_admin);\n    }\n\n    // =================================\n    // Admin Only Actions\n    // =================================\n    function addMerchant(address _merchant) external onlyAdmin {\n        // TODO: your code here\n        // Hints: Remember the index into the array is the ID\n        // 1. Create a new merchant and assign various fields\n        // 2. Push new merchant into array\n        // 3. Update addrToMerchantId mapping\n        // 4. Emit event\n        uint newID = merchants.length;\n        \n        Merchant memory newMerchant;\n        newMerchant.id = newID;\n        newMerchant.addr = _merchant;\n        newMerchant.isApproved = true;\n\n        merchants.push(newMerchant);\n        addrToMerchantId[_merchant] = newID;\n\n        emit AddedMerchant(_merchant, newID);\n    }\n\n    function banMerchant(uint _id) external onlyAdmin {\n        // TODO: your code here\n        // Hints: Only ban merchants that are valid and\n        // remember we're not removing a merchant.\n        require (merchants[_id].isApproved);\n\n        merchants[_id].isApproved = false;\n\n        emit BannedMerchant(_id);\n        \n    }\n\n    function approveMerchant(uint _id) external onlyAdmin {\n        // TODO: your code here\n        // Hints: Do the reverse of banMerchant\n        require (!merchants[_id].isApproved);\n\n        merchants[_id].isApproved = true;\n\n        emit ApprovedMerchant(_id);\n    }\n\n    function addUser(address _user) external onlyAdmin {\n        // TODO: your code here\n        // Hints: Similar steps to addMerchant\n        uint userID = users.length;\n\n        User memory newUser;\n        newUser.id = userID;\n        newUser.addr = _user;\n        newUser.isApproved = true;\n        newUser.totalEarnedPoints = 0;\n        newUser.totalReedemedPoints = 0;\n\n        users.push(newUser);\n\n        addrToUserId[_user] = userID;\n\n        emit AddedUser(_user, userID);\n    }\n\n    function banUser(address _user) external onlyAdmin {\n        // TODO: your code here\n        // Hints: Similar to banMerchant but the input\n        // parameter is user address instead of ID.\n        uint idUser = addrToUserId[_user];\n\n        require (users[idUser].isApproved);\n\n        users[idUser].isApproved = false;\n\n        emit BannedUser(_user, idUser);\n        \n    }\n\n    function approveUser(address _user) external onlyAdmin {\n        // TODO: your code here\n        // Hints: Do the reverse of banUser\n        uint idUser = addrToUserId[_user];\n        require (!users[idUser].isApproved);\n\n        users[idUser].isApproved = true;\n\n        emit ApprovedUser(_user, idUser);\n    }\n\n    // =================================\n    // Merchant Owner Only Actions\n    // =================================\n    function addOperator(address _operator) external onlyMerchantOwner {\n        // TODO: your code here\n        // Hints:\n        // 1. Get the merchant ID from msg.sender\n        // 2. Set the correct field within the Merchant Struct\n        // 3. Update addrToMerchantId mapping\n        // 4. Emit event\n        uint merchantID = addrToMerchantId[msg.sender];\n\n        merchants[merchantID].isOperator[_operator] = true;\n\n        addrToMerchantId[_operator] = merchantID;\n\n        emit AddedOperator(merchantID, _operator);\n    }\n\n    function removeOperator(address _operator) external onlyMerchantOwner {\n        // TODO: your code here\n        // Hints: Do the reverse of addOperator\n        uint merchantID = addrToMerchantId[msg.sender];\n\n        merchants[merchantID].isOperator[_operator] = false;\n\n        addrToMerchantId[_operator] = 0;\n\n        emit RemovedOperator(merchantID, _operator);\n    }\n\n    function transferMerchantOwnership(address _newAddr) external onlyMerchantOwner {\n        // TODO: your code here\n        // Hints: Similar to addOperator but update different fields\n        // but remember to update the addrToMerchantId twice. Once to\n        // remove the old owner and once for the new owner.\n        uint merchantID = addrToMerchantId[msg.sender];\n        merchants[merchantID].isOperator[msg.sender] = false;\n        merchants[merchantID].isOperator[_newAddr] = true;\n\n        addrToMerchantId[msg.sender] = 0;\n        addrToMerchantId[_newAddr] = merchantID;\n\n        emit TransferredMerchantOwnership(merchantID, msg.sender, _newAddr);\n    }\n\n    // =================================\n    // Merchant only actions\n    // =================================\n    function rewardUser(address _user, uint _points) external onlyMerchant {\n        // TODO: your code here\n        // Hints: update the total and per merchant points\n        // for the user in the User struct.\n\n        uint merchantId = addrToMerchantId[msg.sender];\n        uint userId = addrToUserId[_user];\n\n        users[userId].totalEarnedPoints.add(_points);\n        users[userId].merchantToEarnedPts[merchantId].add(_points);\n\n        emit RewardedUser(_user, merchantId, _points);\n    }\n\n    // =================================\n    // User only action\n    // =================================\n    function redeemPoints(uint _mId, uint _points) external onlyUser {\n        // TODO: your code here\n        // Hints:\n        // 1. Get the user ID from caller\n        // 2. Ensure user has at least _points at merchant with id _mID\n        // 3. Update the appropriate fields in User structs\n        // 4. Emit event\n        uint userId = addrToMerchantId[msg.sender];\n\n        require (getUserEarnedPointsAtMerchant(msg.sender,_mId).sub(getUserRedeemedPointsAtMerchant(msg.sender,_mId)) >= _points);\n\n        users[userId].totalReedemedPoints.add(_points);\n        users[userId].merchantToRedeemedPts[_mId].add(_points);\n\n        emit RedeemedPoints(msg.sender, _mId, _points);\n    }\n\n    // =================================\n    // Getters\n    // =================================\n\n    function getMerchantById(uint _id) public view returns(uint, address, bool) {\n        require(merchantExist(_id));\n        Merchant storage m = merchants[_id];\n        return(m.id, m.addr, m.isApproved);\n    }\n\n    function getMerchantByAddr(address _addr) public view returns(uint, address, bool) {\n        uint id = addrToMerchantId[_addr];\n        return getMerchantById(id);\n    }\n\n    function isMerchantOperator(address _operator, uint _mId) public view returns(bool) {\n        require(merchantExist(_mId));\n        return merchants[_mId].isOperator[_operator];\n    }\n\n    function getUserById(uint _id) public view returns(uint, address, bool, uint, uint) {\n        require(userExist(_id));\n        User storage u = users[_id];\n        return(u.id, u.addr, u.isApproved, u.totalEarnedPoints, u.totalReedemedPoints);\n    }\n\n    function getUserByAddr(address _addr) public view returns(uint, address, bool, uint, uint) {\n        uint id = addrToUserId[_addr];\n        return getUserById(id);\n    }\n\n    function getUserEarnedPointsAtMerchant(address _user, uint _mId) public view returns(uint) {\n        uint uId = addrToUserId[_user];\n        require(userExist(uId));\n        require(merchantExist(_mId));\n        return users[uId].merchantToEarnedPts[_mId];\n    }\n\n    function getUserRedeemedPointsAtMerchant(address _user, uint _mId) public view returns(uint) {\n        uint uId = addrToUserId[_user];\n        require(userExist(uId));\n        require(merchantExist(_mId));\n        return users[uId].merchantToRedeemedPts[_mId];\n    }\n}",
  "sourcePath": "/Users/miguelsoares/Projects/Training/Blockchain/Blockgeeks/week4/contracts/RewardPoints.sol",
  "compiler": {
    "name": "solc",
    "version": "0.5.0+commit.1d4f565a.Emscripten.clang"
  },
  "schemaVersion": "3.0.2",
  "updatedAt": "2019-03-24T22:46:15.918Z",
  "devdoc": {
    "methods": {}
  },
  "userdoc": {
    "methods": {}
  }
}